:020000040800F2
:1000000018050020E10000085907000855070008FE
:1000100000000000000000000000000000000000E0
:100020000000000000000000000000005D07000864
:1000300000000000000000005B070008F107000856
:10004000F3000008F3000008F3000008F3000008C4
:10005000F3000008F3000008F3000008F3000008B4
:1000600000000000F3000008F3000008F30000089F
:10007000F3000008F3000008F3000008000000008F
:10008000F3000008F300000800000000F30000087F
:10009000F3000008F3000008F3000008F300000874
:1000A000F3000008F3000008F3000008F300000864
:1000B000C50900080000000000000000000000006A
:1000C000F300000800000000F30000080348854624
:1000D00000F020FA00480047450E000818050020EF
:1000E0000448804704480047FEE7FEE7FEE7FEE7D6
:1000F000FEE7FEE701080008CD00000830B50B461A
:10010000014600202022012409E00D46D5409D42F1
:1001100005D31D469540491B254695404019154677
:10012000521E002DF1DC30BDF0B51FB40646002094
:1001300082B005464024019100901BE001992246BF
:100140000F46304600F008FA049A059B801A994140
:1001500010D310461946224600F0EEF9361A8F41A8
:100160000197224601200021009F00F0E5F9381890
:100170004D4100902046641E0028DFDC019B009862
:100180002946324607B0F0BDF0B50746084658404C
:1001900087B0C00F049048000E4659004008490837
:1001A000BC1A884105D2384631461E4617460B46D2
:1001B00002465800400810434CD0300D03904005D3
:1001C0005900400D490D0590401A0290402872DAFE
:1001D00018030121000B09050843019004980092BF
:1001E000002805D0019952420020884100920190D8
:1001F000029840210A1A0199009800F09DF90546DD
:100200000C466B4607CB00F0B8F9C0197141039A50
:100210000E0D0023D71756401A467A40164344D095
:10022000049A002A2DD0029A012A039A15DC12059D
:10023000C01A914101263605001C7141D20F059E5E
:10024000D2070093019202962A46234600F0B5F9A0
:1002500007B0F0BD38463146FAE71605224A0F4688
:10026000B218C01AB74101210905001C4F410018FE
:100270007F41114618187941E20F10436D1964410E
:1002800013E0E2076D0815436408C2071443039A9C
:1002900001261205C01A91413605001C7141CE0796
:1002A000400830434908C01851412A46234600F00F
:1002B00077F9CDE7FFE7049801224000C117121A31
:1002C00000238B4104983146C417381AA141EEE748
:1002D00030B40124E407634030BC55E730B4012456
:1002E000E407614030BC4FE70000E0FFF0B51FB409
:1002F00088B00B990998002448400999C00F49001B
:1003000049080991C0070B990090490049080B91D1
:1003100009990898A64608431CD00B990A980843E7
:1003200018D0099801244000420D4800410D099859
:1003300024050003000B204309900B980003000BD9
:1003400020430B9050181C4940180022019014467D
:10035000104605E0002001460DB0F0BD032801DA8B
:10036000034600E003239C46C11A0AAE0AE05F0080
:1003700008ADED5B4F00F75B7D430027AA187C4179
:10038000491C5B1E6145F2DD410004AB5A52210459
:10039000120C0A43240C401C0828DFDB0198029051
:1003A0000099704601910090059B049A0799069860
:1003B00000F003F9D0E700000DFCFFFFF0B50C469C
:1003C0005C4085B0E40FE40703944C000026640809
:1003D00059009446490802460296224321D06246BB
:1003E0000A431ED06200570D4A000E032303550D29
:1003F000012402462C492405781B1B0B360B4018A0
:1004000023432643614600901C46501AB44103D34F
:100410000098401C009002E0921800985B41002870
:1004200003DA0020014605B0F0BD002001210905D6
:100430000746864611E064461D46141BB54106D3A7
:100440006546521BB341744607430C43A646CD078D
:1004500040084908284392185B4105460D43EAD1FC
:100460001046184313D06046194650407140084367
:1004700006D06046101AB34106D20122002306E0DE
:1004800000220123DB0702E00122D243531000982F
:1004900074460105381C6141029C039D00196941A5
:1004A00000F07EF8BFE70000FD0300004A000903EA
:1004B0000123090B1B0519430A4B10B5520D9A4233
:1004C00002DA0020014610BD064B34339A4203DCA9
:1004D0009A1A00F041F810BD034BD21800F02CF826
:1004E00010BD0000FF030000CDFBFFFF10B5002989
:1004F00004DB0124E40740428C412146002B04DB4D
:100500001C460123DB075242A341994200D190428D
:1005100010BD0000064C0125064E05E0E36807CC3F
:100520002B430C3C98471034B442F7D3FFF7D2FD6D
:10053000C4200008E420000810B5202A04DB01468E
:10054000203A9140002010BD914020239C1A034680
:10055000E3401943904010BD10B5202A04DB084643
:10056000203AD040002110BD0B46D340D04020247B
:10057000A21A91400843194610BD10B5202A06DB87
:10058000CB170846203A1041C1170B4306E00B4633
:100590001341D0402024A21A91400843194610BDAF
:1005A00010B5002B08DA0024401C614192185B4111
:1005B0001A4301D14008400010BDF0B51FB482B00D
:1005C00005460C0003D0084601F09EF802E001F059
:1005D0009BF820300246009021462846FFF7ACFFEA
:1005E000049B059A04460F4618431143084314D050
:1005F000184610431BD0009840210A1A1846059946
:10060000FFF7AAFF05460E46009A05990498FFF7E2
:1006100093FF084305D0012004E02046394607B087
:10062000F0BD0020C11705430E432C43374300990A
:100630000E986305401A7905E40A00220C43FD0A6E
:100640000A3002D500200146E9E701051019694189
:100650000C9C0D9D00196941FFF7A2FFDFE7000028
:1006600080B582B00020019008480168491C0160F3
:100670000198002808D1FFE704480168044801F008
:1006800033F80090FFE7FEE702B080BD08000020CD
:10069000A520000880B582B0E120400200F0B4F946
:1006A0000648006840F2E831B0FBF1F000F074F861
:1006B000019000F0FBF802B080BDC04604000020AD
:1006C00080B584B001460290CD480E4A0191114692
:1006D00000F0B1FE01280DD1FFE700F02BF8002853
:1006E00008D1FFE70299F44800F05EFE03A800215C
:1006F000017003E003A801210170FFE703A800785F
:1007000004B080BD0707000081B0114801784A1C81
:100710000270204A515C6A4611700078FF2804DBA1
:10072000FFE70B4800210170FFE76846007801B041
:100730007047C04616480078FF3005490978401ACE
:10074000FF2190FBF1F25143401A80B27047C0463E
:1007500010000020FFE7FEE7704770477047000079
:1007600010B582B0014601AA10700198084A1378AA
:100770005C1C1470074CE0541078FF28009104DBD7
:10078000FFE7034800210170FFE702B010BDC0463B
:10079000110000201200002080B584B001460290B4
:1007A0000298401E000E0028019103D0FFE70120AF
:1007B000039013E00298401E0A4908600020C143DC
:1007C000032200900846114600F096F90648009969
:1007D00001600648072202600391FFE7039804B016
:1007E00080BDC04614E000E018E000E010E000E04A
:1007F00002480168491C01607047C0460C00002097
:1008000080B582B020480168012211430160FFE7F2
:100810001D4800688007002801D4FFE7F8E71B485F
:1008200001681B4A1140016001681A4A11400160C9
:1008300015480168184A11400160184801680F22E4
:10084000914301601648016840F203129143016030
:10085000016801221304994301600168D307994399
:10086000016010480168914301600F480021016058
:100870000192009100F038FD0198C006009900F047
:1008800005FB02B080BDC0460010024004100240CB
:100890000C00FF08FFFFC277FFFFF2FE2C100240A2
:1008A00030100240341002400810024080B58AB077
:1008B000334800F019FF33490990084600F048FC1E
:1008C000012805D1FFE73E4800F00EFF089053E0F5
:1008D0002D4800F03DFC012805D1FFE7374800F026
:1008E00003FF079047E0294800F032FC012805D1BA
:1008F000FFE7314800F0F8FE06903BE0244800F0A6
:1009000027FC012805D1FFE72A4800F0EDFE0590FD
:100910002FE0204800F01CFC012805D1FFE7244807
:1009200000F0E2FE049023E01B4800F011FC0128D7
:1009300005D1FFE71D4800F0D7FE039017E01748E8
:1009400000F006FC012805D1FFE7174800F0CCFEB7
:1009500002900BE0124800F0FBFB012805D1FFE7F5
:10096000104800F0C1FE0190FFE7FFE7FFE7FFE757
:10097000FFE7FFE7FFE7FFE700F09EFA0AB080BD60
:10098000B82000081F0900001B0900001E09000014
:100990001D0900001A0900001C09000019090000C7
:1009A00017090000602000081620000898200008A1
:1009B0004F2000082A2000083B200008742000086F
:1009C0008620000880B582B03B480E4900F08EFDBD
:1009D000012813D1FFE738480A4900F063FDFFF70B
:1009E000A9FE002809D0FFE7FFF78EFE32490190EB
:1009F0000846019900F0D8FCFFE7FFE702B080BD90
:100A0000004400400600060780B58AB00146099000
:100A10002748089100F0BAFB0920C006012148F2DE
:100A2000000207900691059200F004F90221079850
:100A3000069A059B00F067F9002007990490084684
:100A40000499069A059B00F0AFF91A4800F09EFB46
:100A50001948039000F0B8FC0398049900F029FEAF
:100A60000398049900F0F7FD0398049900F0D9FD6C
:100A70000999039800F03CFC0821039800F005FE5A
:100A80000620039902900846029900F067FD03983A
:100A9000029900F0F1FC039800F0C2FC1C20032135
:100AA00000F0DAF9054800F01FFE01900AB080BDA1
:100AB000110500001107000000440040002000085C
:100AC00082B0014601AA1070107840B2002800914F
:100AD0000DDBFFE701A8007840B21F2102460A4063
:100AE0000121914040098000024A8150FFE702B095
:100AF0007047C04600E100E070B584B00A46034686
:100B000003AC20700291207840B20028019200933B
:100B100017DBFFE703A8017849B20322D243114053
:100B2000384BC958007840B28407E40EFF25A54031
:100B3000A943029DAD01EDB2A54029431040C1502B
:100B40001AE003A801780F22114008390323DB4380
:100B500019402B4C0959007840B28507ED0EFF264D
:100B6000AE40B143029EB601F6B2AE4031431040F2
:100B7000083818400151FFE704B070BD70B584B06B
:100B80000A46034603AC20700291207840B2002848
:100B90000192009317DBFFE703A8017849B2032213
:100BA000D2431140174BC958007840B28407E40E75
:100BB000FF25A540A943029DAD01EDB2A540294303
:100BC0001040C1501AE003A801780F2211400839E3
:100BD0000323DB4319400A4C0959007840B28507CA
:100BE000ED0EFF26AE40B143029EB601F6B2AE4016
:100BF00031431040083818400151FFE704B070BD80
:100C00001CED00E000E400E080B584B00A46034635
:100C100003900291039801920093FFF751FD002881
:100C200005D0FFE703A80078FFF79AFDFFE70398D8
:100C300004B080BDB0B589B013460C460546089097
:100C4000079106920898006A04900898406A0390F9
:100C500005A800210180029301940095FFE705A8F3
:100C6000008807281ED8FFE705A8008801218140D9
:100C70000698014210D0FFE705A8018889000F22DD
:100C80008A4004999143049107990088800081402B
:100C9000049808430490FFE7FFE70598401C05A966
:100CA0000880DCE705A808210180FFE705A8008887
:100CB0000F2820D8FFE705A8008801218140069869
:100CC000014212D0FFE705A80188890020390F22D0
:100CD0008A40039991430391079900888000203846
:100CE0008140039808430390FFE7FFE70598401C05
:100CF00005A90880DAE7049808990862039808991A
:100D0000486209B0B0BDF0B58BB01C4615460E4622
:100D100007460A900991089207930A98006805907F
:100D20000A98C068049006A80021018003940295E7
:100D300001960097FFE706A800880F282CD8FFE748
:100D400006A8008801218140079801421ED0FFE7D4
:100D500006A801884900032213468B400599994350
:100D60000591099903885B009940059B0B43059306
:100D7000018849008A4004999143049108990088A8
:100D800040008140049808430490FFE7FFE706987D
:100D9000401C06A90880CEE705980A9908600498C7
:100DA0000A99C8600BB0F0BDF0B58AB01C46154674
:100DB0000E460746099008A801700792069300782E
:100DC0000128039402950196009706D1FFE7069843
:100DD00009994A6802434A6005E0069809994A68F9
:100DE00082434A60FFE709988068049005A80021C3
:100DF0000180FFE705A800880F281ED8FFE705A897
:100E00000088012181400698014210D0FFE705A823
:100E10000188490003228A4004999143049107996B
:100E2000008840008140049808430490FFE7FFE7F2
:100E30000598401C05A90880DCE70498099988609A
:100E40000AB0F0BD80B582B000200190FFF722FC0F
:100E5000FFE7FFF705FCFCE710B586B00A4603463E
:100E600005AC207004A80170217849B20078039085
:100E700008460399029201930094FFF77FFE0098C1
:100E8000017848B2FFF71CFE06B010BD10B584B063
:100E90000A4603460390029103980299044C2140AC
:100EA0000843044908600192009304B010BDC04695
:100EB00080FFFF1F08ED00E00348016801221206D1
:100EC000114301607047C046241002409CB00146A7
:100ED0001BAA107000201A90199018901790169065
:100EE0001590149013901290119010900F900E90F6
:100EF0000D900C900B908D4A0A928D4A09920890A1
:100F000007900692059004920390F54800680C2221
:100F1000104080081A901A9800280291019008D079
:100F2000FFE70198012807D0FFE70198022806D0C3
:100F300045E08348169045E08048169042E0E84836
:100F400001680F2292041140890C10910068012160
:100F5000C9060840C00E0F900F98012804D1FFE782
:100F60001098113010900BE010980F2803D1FFE774
:100F70001020109003E01098801C1090FFE7FFE70E
:100F8000D7480068012109040840000C0E900E9813
:100F900000280ED0FFE7684800680F210840401C79
:100FA0000D900D986549B1FBF0F0109941431691F1
:100FB00004E010985F4941431691FFE702E0604862
:100FC0001690FFE7C6480168C9B209090C910C994F
:100FD00007AA515C0B9116990B9AD14015910168A3
:100FE00040F200721140090A0C910C9905AA515C5B
:100FF0000B9115990B9AD1401491006843F60001AA
:101000000840C00A0C900C9803A9085C0B90159836
:101010000B99C84013901BA800780528009000D9B0
:1010200080E00098810001A251188F4600F00AB8B4
:1010300000F00BB800F00CB800F00DB800F00EB8DE
:1010400000F041B8169817906DE0159817906AE077
:101050001498179067E01398179064E03948006877
:1010600040F20011084088420FD0FFE73548006881
:10107000012109040840884203D0FFE73348129059
:1010800002E031481290FFE71AE09548006880B20C
:10109000800B19902B480068C00F189018980028F2
:1010A00007D0FFE715981999491CB0FBF1F0129091
:1010B00005E013981999B0FBF1F01290FFE7FFE7F4
:1010C000129817902FE01F4800688007002803D16E
:1010D000FFE71398119022E01A48006803210840A6
:1010E000012803D1FFE71698119017E01548006812
:1010F00003210840022804D1FFE748F200001190C4
:101100000BE01048006803210840032803D1FFE7E3
:101110000B48119000E0FFE7FFE7FFE7FFE71198BA
:10112000179000E0FFE717981CB070470607080902
:101130000102030400093D002C10024000366E013C
:1011400000127A0030100240003FAB01809FD500B2
:1011500083B0014601AA1080108880095E4BC058F8
:1011600012881F231A40012393401842009104D093
:10117000FFE702A80121017003E002A8002101702D
:10118000FFE702A8007803B07047C04610B582B0F0
:10119000014601AA108010881F2203461340012235
:1011A0009A4080094C4BC4581443C450009102B07B
:1011B00010BDC04610B582B0014601AA108010884B
:1011C0001F220346134001229A408009424BC45813
:1011D0009443C450009102B010BDC04610B582B017
:1011E000014601AA108010881F22034613400122E5
:1011F0009A408009384BC4581443C450009102B03F
:1012000010BDC04683B000200290019032480168B2
:101210000122120411430160FFE70298401C029072
:101220002D4800680121490408400190FFE701981A
:1012300000210028009108D1FFE7029840F6000144
:10124000401A411E88410090FFE70098C00700281F
:10125000E3D1FFE7204800688003002802D4FFE7BD
:10126000FFE7FEE71D48016807229143016001681E
:101270000222114301601A4801680160016801609F
:10128000016801600168174A114001600168052288
:101290001204114301601048016801221206114333
:1012A0000160FFE70C4800688001002801D4FFE7D7
:1012B000F8E70B48016803229143016001680222AC
:1012C00011430160FFE7064800680007002801D4C9
:1012D000FFE7F8E703B0704700100240002002402B
:1012E00004100240FFFFC27780B5FFF78BFF80BD7F
:1012F00080B58AB00A4603460990089100200790FD
:1013000006900590049009984149884203920293FF
:1013100001900AD0FFE73F48019981420AD1FFE7D7
:101320000520FFF7D3FD079005E00220FFF7CEFD73
:10133000079000E0FFE7099800680004002818D52E
:10134000FFE70798400008994A088018B0FBF1F0C1
:101350000490049813490840069004980007400F31
:10136000059006A8008805A9098808430999C8605E
:1013700016E0079808994A088018B0FBF1F004902D
:10138000049808490840069004980F2108400590E9
:1013900006A8008805A9098808430999C860FFE7DD
:1013A0000AB080BDF0FF000084B00A4603460390F7
:1013B00002910298034908400399886201920093C0
:1013C00004B07047FF01000080B586B0014605906B
:1013D00005980F4A9042049103900DD0FFE70D4805
:1013E0000399814210D1FFE70C480290FFF7F6FE07
:1013F0000298FFF7DFFE08E007480190FFF7EEFED6
:101400000198FFF7D7FE00E0FFE706B080BDC046B9
:101410000044004000380140110400000E030000A9
:1014200082B0014601900198026801231A430260CC
:10143000009102B0704710B585B00A46034603908C
:1014400002A8018003990488A409095900881F246F
:1014500020400124844021420192009304D0FFE700
:1014600004A80121017003E004A800210170FFE736
:1014700004A8007805B010BDB0B584B00A46034694
:10148000039002A8018000881F2104460C4001211E
:10149000A140039C800925580D43255001920093DB
:1014A00004B0B0BD84B00A4603460390029102988E
:1014B0000D4988420192009308D1FFE70398D0219B
:1014C000425848F200039A4342500BE002981F2111
:1014D00009040840000C012181400398026A0A4374
:1014E0000262FFE704B0704709340F3470B587B06B
:1014F0000A46034605900491002003900290059847
:1015000004A909888909405804991F24214001250C
:101510002E468E403040039005980499890D40581E
:10152000049924042140090C8D402840029002981F
:1015300000280192009308D0FFE70398002804D008
:10154000FFE706A80121017003E006A80021017051
:10155000FFE706A8007807B070BD0000B0B585B001
:101560000A460346049003A8017004990C680125FB
:10157000AC430C60007807280292019300904DD88C
:101580000098810001A251188F46C04600F00EB8A5
:1015900000F013B800F018B800F01DB800F022B841
:1015A00000F027B800F02CB800F031B8049841687A
:1015B000012292041143416031E004984168012204
:1015C0009204914341602AE0049841680122520448
:1015D0001143416023E00498416801225204914381
:1015E00041601CE0049841680122120411434160EB
:1015F00015E00498416801221204914341600EE015
:101600000498416848F200021143416007E00498E1
:10161000416848F200029143416000E0FFE705B0F5
:10162000B0BD10B584B00A460346039002910398FA
:1016300001680124A14301600398016840F200643D
:10164000A1430160029803990C6804430C60019265
:10165000009304B010BD10B584B00A460346039051
:101660000291039801680124A14301600398416835
:1016700043F20004A1434160029803994C6804437B
:101680004C600192009304B010BD10B584B00A46BE
:10169000034603900291039801680824A143016066
:1016A000029803990C6804430C600192009304B003
:1016B00010BD10B584B00A4603460390029103980A
:1016C00001680124A14301600398016841F200040C
:1016D000A1430160029803990C6804430C600192D5
:1016E000009304B010BD00000FB410B503A9044B63
:1016F000044A029800F0E8F810BC08BC04B018478F
:10170000090C0008000000202021020C01D010214B
:101710001046020A01D010460839020901D01046CD
:10172000091F820801D01046891E420801D0881E78
:101730007047081A704702E008C8121F08C1002A43
:10174000FAD170477047002001E001C1121F002A42
:10175000FBD17047F0B51FB486B00998089A030D05
:101760000021024314D05148514A1818504305141F
:101770001198012810981AD0281A401C00264D4FA5
:101780004D49009601910490002812DA444211E07C
:101790001198012449A3012801D11098C14306984A
:1017A000119A84600360C26041600BB0F0BD40429A
:1017B000E4E70446210500203F4A001C5141039103
:1017C000029012E0E00707D032463B4601990098AC
:1017D000FEF78CFD0191009032463B4610461946BB
:1017E000FEF784FD06460F466410002CEAD10498EB
:1017F000039B0028029A0999089806DAFEF776FDFD
:10180000019B009AFEF772FD05E0FEF7D7FD019BF4
:10181000009AFEF7D3FD04460E460022284BFEF741
:1018200065FE03D80020C043014607E00022254B97
:1018300020463146FEF7A8FCFEF738FE102409E0EA
:10184000002C0ADB0A220023FEF76EFC079B3032D5
:101850001A55641E02460A43F2D11122641C079BEA
:10186000121B1C19119B012B03D0012308430ED11D
:101870000AE0084304D0112010900020119077E76F
:101880001098151A6D1E0BE01098824202DD00239D
:101890006D1C03E0824201DA00236D1E002BEED0A6
:1018A000069811998260C16030C07EE701FCFFFF9D
:1018B000104D0000000014400000F03F3000000018
:1018C0000000F0430000E03FFFB597B0064600255A
:1018D00018E2252877D100242746FD49049400E02A
:1018E0000443761C32780120203A90400842F7D118
:1018F00030782A280ED00222307801463039092962
:1019000016D804990A235943303940181443761CD9
:101910000490F1E7189802C804911890002904DA9D
:101920000120400304434842049002200443761CF3
:1019300030782E2814D1042004437078761C2A288D
:1019400009D11898761C80C8189009E00A214F43E5
:10195000303FC719761C3078014630390929F5D94E
:1019600030786C2810D006DC4C281AD068280ED0AD
:101970006A2817D104E0742813D07A2812D110E015
:101980000120400504430CE00121090501E0032189
:1019900009050C437178814203D101200005241808
:1019A000761C761C3078119066280BD013DC5828F2
:1019B0007DD009DC00287BD04528F6D04628F4D01D
:1019C00047281AD1A5E118E0632835D0642870D0E3
:1019D000652812D19DE170286CD008DC6728F1D011
:1019E00069287BD06E280DD06F2806D1BAE0732805
:1019F0002ED0752871D0782859D01A9A1999904705
:101A00006D1C7EE16002400F022809D003280DD032
:101A10000428189801680DD00D60001D189070E121
:101A20001898EA1701680D604A60F6E7189801688F
:101A30000D80F2E70D70F0E718986A460178117290
:101A4000001D18900020507202A80090012005E0AF
:101A5000189802C8189000200091C04361070DD566
:101A6000002101E00199491C0191B94212DA814239
:101A7000F8DB009A515C0029F4D10BE0002101E071
:101A80000199491C01918142FADB019A0099895C14
:101A90000029F5D1019904981A9B471A2146384626
:101AA000199A00F097FA0199401945180BE04FE098
:101AB0002CE113E04EE0009800990078491C009159
:101AC0001A9A199990470198401E0190401CF2D132
:101AD000214638461A9B199A10E137E00A20002166
:101AE000009001916002410F022907D0189A01CAA3
:101AF0001892C2179446032908D00AE01898C01D0E
:101B0000C108C90005C91891944607E000B2C21780
:101B10009446042902D140B2C1178C460022614686
:101B2000944506DA0A460021404291418C462D2117
:101B300002E0210504D52B216A461173012103E03F
:101B4000E10701D02021F7E7029155E00A200AE0E1
:101B5000102008E01020009000210420044301918F
:101B6000082703E008200021019100906002410F46
:101B7000022907D0189A01CA189200229446032914
:101B800008D008E01898C01DC108C90005C91891FF
:101B9000944603E080B2042900D1C0B20021029132
:101BA000210729D51199702906D0009A1021019B8F
:101BB0004A401A4305D00EE040216A4611730121C4
:101BC00008E06146014306D030216A46117311993D
:101BD000517302210291009A0821019B4A401A4345
:101BE0000AD16146014301D1610705D530216A461A
:101BF000117301217F1E02911199582904D035A13A
:101C00000E910DA90D910DE037A1F9E76146019BF9
:101C1000009AFEF789FA0E9B8C469B5C0D9A521E29
:101C20000D92137061460143F0D10D9805A9081A71
:101C300020300190600703D501200004844300E0B8
:101C400001270198874201DD381A00E00020019940
:101C500000904118029809180498401A0490E00373
:101C600006D421461A9B199A049800F0B3F9451935
:101C7000002706E003A81A9AC05D199990476D1CC9
:101C80007F1C02988742F5DBE0030CD521461A9BA6
:101C9000199A049800F09EF9451904E01A9A302028
:101CA000199990476D1C0099481E00900029F5DC99
:101CB00008E00D980D990078491C0D911A9A199910
:101CC00090476D1C0199481E01900029F1DC63E1E9
:101CD0000928010030313233343536373839616202
:101CE00063646566000000003031323334353637C6
:101CF00038394142434445460000000000F05AF99B
:101D00004519761C3078002800D0E2E528461BB043
:101D1000F0BD600700D406271898C01DC108C9008F
:101D200048680A680831C30FDB071891190001D011
:101D30009CA108E0210501D59BA104E0E10701D0A9
:101D40009AA100E09AA1430011985B0810916528C0
:101D50000CD006DC452809D046281DD0472841D1A3
:101D600041E0662818D067283CD13CE00021112FC3
:101D700001DB112000E0781C0191009008A911A856
:101D8000FFF7E8FC139905910021119A15927F1C29
:101D900012980197009150E00120C00703900120A4
:101DA000019008A9009711A8FFF7D4FC139A149981
:101DB00005920022119B009212981593059A0192A8
:101DC000002901D0104602E0791C40180190381A11
:101DD00001D5019804E04042401E0090781C01901B
:101DE000C01B029043E0012F00DA01270021112FD0
:101DF00001DD112000E038460191009008A911A8EA
:101E0000FFF7A8FC13990591119A002112981592D9
:101E10000091019721070CD40599B94201DB019982
:101E200000E00191012904DD159A491E515C302919
:101E300006D0B84201DA011D05DA0121029115E050
:101E40000199491EEDE7002805DC00994118009131
:101E50000199091A03E0019A411C914200DD0191A8
:101E60000099401A401C02900120C00703902007EF
:101E700006D402990198814202DB0020C0430290FF
:101E800000206946C87707AF012103980337C907C7
:101E9000884224D0022011902B2012900398002811
:101EA0000CDA404203902D20129007E00A2103989B
:101EB000FEF724F930317F1E039039701199481EC6
:101EC00011900029F2DC03980028EFD1791E1298B6
:101ED00008703078202108404530BF1E387006A8B1
:101EE000C01BC01D039010980078002800D001206E
:101EF000019941180298C017091803980918049805
:101F0000401A401E0490E00306D421461A9B199AF9
:101F1000049800F05FF8451910980078002803D065
:101F20001A9A199990476D1CE00324D521461A9BF3
:101F3000199A049800F04EF845191CE00098002802
:101F400007DB00990598884203DD1598405C1999D4
:101F500001E0199930201A9A904700986D1C401C96
:101F600000900298401E0290002804D11A9A2E2058
:101F7000199990476D1C0199481E01900029DDDCDC
:101F800005E038781A9A7F1C199990476D1C0399BF
:101F9000481E03900029F4DC21461A9B199A0498E4
:101FA000ACE600002D0000002B0000002000000027
:101FB00000000000F8B5044600251E4617468804B8
:101FC00004D405E039462020B0476D1C641EF9D5C5
:101FD0002846F8BDFFB50446002581B01E46C8035B
:101FE00001D5302700E02027880404D505E03846D5
:101FF0000399B0476D1C641EF9D5284605B0F0BDA5
:10200000557361727420646562756720696E6974C6
:10201000204F4B210A004F5054494F4E5F425954B4
:10202000455F52455345543B0A00465245455F447F
:102030004F475F52455345543B0A0057494E444F62
:1020400057535F444F475F52455345543B0A004541
:10205000585445524E414C5F52455345543B0A003B
:1020600056444431325F504F5745525F52455345B5
:10207000543B0A00504F525F504F5745525F5245F4
:102080005345543B0A004C4F575F504F5745525FE2
:1020900052455345543B0A00534F46545F524553F3
:1020A00045543B0A006D616C6C6F63206661696C1E
:1020B00065642025643B0A0053797374656D20695B
:1020C00073200000E8200008000000200800000045
:1020D00036170008F0200008080000201005000056
:1020E00046170008000000000000000000A24A049B
:04000005080000CD22
:00000001FF
