:020000040800F2
:1000000010050020C9000008DD0E0008E109000805
:1000100000000000000000000000000000000000E0
:100020000000000000000000000000006115000852
:100030000000000000000000250F00080D16000859
:10004000F900000800000000F9000008F9000008AD
:10005000F9000008F9000008F9000008F90000089C
:1000600000000000F9000008F9000008F90000088D
:10007000F9000008F9000008F9000008000000007D
:10008000F90000080000000000000000F90000086E
:10009000F9000008CD170008F9000008F900000871
:1000A000F9000008F9000008F9000008F90000084C
:1000B000F90000080348854600F09EF80048004714
:1000C0001D280008100500200C4880F308880C4803
:1000D0000168090E0B4A914205D10B480B4901609A
:1000E0000B480C4901600C4880470C480047FEE76C
:1000F000FEE7FEE7FEE7FEE7FEE700001005002052
:10010000040000001F000000181002400100000061
:10011000000001400000000021160008B5000008A2
:1001200030B50B46014600202022012409E00D468F
:10013000D5409D4205D31D469540491B2546954017
:1001400040191546521E002DF1DC30BD70B500245B
:100150002546002801DA01244042002901DA012560
:100160004942FFF7DDFFAC4200D04042002C00D0F6
:10017000494270BDD2B201E00270401C491EFBD260
:1001800070470022F6E710B513460A4604461946A2
:10019000FFF7F0FF204610BDF0B51FB40646002063
:1001A00082B005464024019100901BE0019922464F
:1001B0000F46304600F042F8049A059B801A994198
:1001C00010D310461946224600F028F8361A8F41FF
:1001D0000197224601200021009F00F01FF83818E7
:1001E0004D4100902046641E0028DFDC019B0098F2
:1001F0002946324607B0F0BD064C0125064E05E003
:10020000E36807CC2B430C3C98471034B442F7D337
:10021000FFF754FF7C2E00089C2E000810B5202A02
:1002200004DB0146203A9140002010BD914020237C
:100230009C1A0346E3401943904010BD10B5202A94
:1002400004DB0846203AD040002110BD0B46D340C5
:10025000D0402024A21A91400843194610BD000046
:1002600070B50546154814460E46854203D014491C
:10027000144802F0A3FA002E01D0F00C04D02D2176
:100280000901104802F09AFA002C12D0012C10D06B
:10029000022C0ED0032C0CD0042C0AD0052C08D034
:1002A000062C06D0072C04D005490648891C02F00C
:1002B00085FAA86A3043A8626C6170BD00240140D1
:1002C000CF020000142D000870B504460B480D46FF
:1002D000844203D0E9210A4802F070FA002D08D0C8
:1002E000012D03D0EA21064802F068FAA068012136
:1002F00001E0A06802210843A06070BD0024014015
:10030000142D0008094910B5884204D085210848F9
:1003100002F054FA10BD01214C02204601F03CF8D5
:100320000021204601F038F810BD000000240140F3
:10033000142D000870B504460E480025844203D0F1
:100340000D490E4802F03AFAA0680121C907084396
:10035000A0600F210903A0686D1CC00FC0078D426B
:1003600001D00028F7D1A068002801DB206C70BD07
:10037000002070BD002401403D030000142D000842
:1003800010B504460548844204D0DF2189000448A2
:1003900002F014FA206C80B210BD0000002401406D
:1003A000142D000870B505461B4800260C468542F2
:1003B00003D01A491A4802F001FA012C1FD0022C6E
:1003C0001DD0042C1BD0082C19D0802C17D0102C39
:1003D00015D01448844212D0401C84420FD0801C97
:1003E00084420CD00F480F30844208D08120000690
:1003F000844204D08B21C900094802F0DFF9E001F2
:1004000004D5A86801210906884300E02868204235
:1004100000D00126304670BD002401405704000082
:10042000142D00080100000170B5054631480C4646
:10043000854203D0A121304802F0C0F9206800288D
:1004400009D0082807D0102805D0182803D0A221E9
:10045000294802F0B3F92079002805D0012803D0FB
:10046000A321254802F0AAF9A06800280ED0012196
:10047000890288420AD04900884207D003218902B4
:10048000884203D0A4211C4802F098F9E1680029B1
:100490000CD040290AD0802908D0C02906D0C81F16
:1004A000F93803D0A521144802F088F92069002802
:1004B00005D0202803D0A6210F4802F07FF96069FB
:1004C000002805D0042803D0A7210B4802F076F9B4
:1004D000E8680A49A2680840216823791143E26864
:1004E0005B031A43114322691143626911430143BB
:1004F000E96070BD00240140142D000803D2FFFF05
:1005000010B504460548844203D00549054802F069
:1005100055F9A06804210843A06010BD00240140E3
:100520006F030000142D000800210160017181603B
:10053000C160016141617047018003490968416000
:1005400001210173084670470000002070B5044681
:10055000007B002810D0094D60682A680021904275
:100560002A6800D9521E2388C018101A894103D363
:10057000A06880472868606070BD0000000000200F
:1005800010B500F0B3FB00F0A1FC10BD10B500F0F9
:1005900059FB00F071FC10BDF8B504460920002697
:1005A000C0060D46844212D03D4884420FD03D48DB
:1005B00084420CD03C48844209D03C48844206D056
:1005C0003B48844203D0AE213A4802F0F7F828684D
:1005D000002803D1AF21374802F0F0F8287900282D
:1005E00009D0012807D0022805D0032803D0B02164
:1005F000304802F0E3F8E879002807D0012805D058
:10060000022803D0B1212B4802F0D8F8012728682E
:10061000B7403840B8423ED12879012801D002289D
:1006200026D16879002807D0012805D0032803D0F7
:10063000C121204802F0C2F8A26870000321814065
:100640008A43A26069798140A0680143A160A879CA
:10065000002805D0012803D0C821164802F0AEF8C2
:10066000A088B843A080A188A879B0400143A180A8
:100670002268710003208840824322602A7923681F
:100680008A401A432260E2688243E260E879884047
:10069000E1680843E060761C102EB7D3F8BD000077
:1006A0000004004800080048000C00480010004802
:1006B000001400485C2D000870B506460920C006ED
:1006C00015460C46864213D02D48864210D02D4840
:1006D00086420DD02C4886420AD02C48864207D04C
:1006E0002B48864204D0812189002A4802F066F80E
:1006F000002C21D0012C1FD0022C1DD0032C1BD08C
:10070000042C19D0052C17D0062C15D0072C13D08B
:10071000082C11D0092C0FD00A2C0DD00B2C0BD08B
:100720000C2C09D00D2C07D00E2C05D00F2C03D08B
:100730001949184802F042F8002D12D0012D10D0AE
:10074000022D0ED0032D0CD0042D0AD0052D08D07B
:10075000062D06D0072D04D00F490E48491C02F083
:100760002DF86007C10E8D40E00880008019026AF4
:100770000F238B409A430262016A2943016270BDD4
:100780000004004800080048000C00480010004821
:10079000001400485C2D00080502000070B50546F5
:1007A00009200026C0060C46854213D02448854205
:1007B00010D0244885420DD0234885420AD02348D2
:1007C000854207D02248854204D0FF212C312148A0
:1007D00001F0F4FF012C2CD0022C2AD0042C28D0BC
:1007E000082C26D0102C24D0202C22D0402C20D015
:1007F000802C1ED0E01FF9381BD0E01FFF38FA38DC
:1008000017D001208002844213D04000844210D0CF
:10081000400084420DD0400084420AD0400084420F
:1008200007D04000844204D0FF212D31094801F057
:10083000C5FF288A204200D00126304670BD000046
:100840000004004800080048000C00480010004860
:10085000001400485C2D000870B504460920C0064D
:100860000D46844213D00E48844210D00D48844275
:100870000DD00D4884420AD00C48844207D00C4861
:10088000844204D0FF219B310A4801F097FF002DDC
:1008900004D1FF219C31074801F090FF258570BDF0
:1008A0000004004800080048000C00480010004800
:1008B000001400485C2D000870B504460920C006ED
:1008C0000D46844213D00E48844210D00D48844215
:1008D0000DD00D4884420AD00C48844207D00C4801
:1008E000844204D0FF2186310A4801F067FF002DC1
:1008F00004D1FF218731074801F060FFA56170BD79
:100900000004004800080048000C0048001000489F
:10091000001400485C2D00081CB50121480400F0BB
:10092000A3FC012100206A46009110715171907161
:100930000220D07109206946C006FFF72DFE1CBDBC
:10094000F8B5254C09202178C00600290AD00025D9
:10095000012914D07D270326FF0002291FD0032977
:1009600037D131E00121FFF719FF00281ED01A48C6
:100970000A21001D01F08CFA012020702AE00121DB
:10098000FFF70CFF002824D01348001D00F030F8BA
:1009900000281FD00220FF212070F5310FE0012137
:1009A000FFF7FCFE002802D125700C48F8BD0A486C
:1009B000001D00F01DF800280CD0267039460648AE
:1009C000001D01F065FA05E00121FFF7E7FE0028B0
:1009D000EDD125700020F8BDC800002010100000E7
:1009E000FEE7018000210173826001207047000052
:1009F00010B5084943680C6800220968A34200D971
:100A0000491E00881818081A924101D3012010BD10
:100A1000002010BD00000020F0B5684887B00346F4
:100A20009A788179541CDD79E4B200949C68029430
:100A30001B79039300266427614C0B0001F034FD01
:100A400007B805202D45458EB800067001784B008B
:100A5000E5541B19491CC9B25F7001700C29F5D30C
:100A600006460225500025540C21501CFFF758FB68
:100A7000480025540C210098FFF752FBB17095E017
:100A8000067001784A00A5541219491CC9B2577062
:100A900001700C29F5D3029943E0467003990029AF
:100AA00011D000210171002900D0477006704378F1
:100AB00001784A00A5541219491CC9B2537001703B
:100AC0000C29F5D3E7E70121ECE74278642A02D349
:100AD000067147700BE0052A06D801220271052233
:100AE0004270FF22827022E0039A012A1FD04278CE
:100AF000521F4270074604291CD0FD703E70FB78DF
:100B00007D78384601784A00A3541219491CC9B2AD
:100B1000557001700C29F5D314210298FFF700FBE2
:100B2000014627481830FFF707FD07B0F0BD4278AF
:100B3000521DDEE7B878FF2806D13879012803D1A5
:100B4000BE70F878401CF8700921F878FFF7E8FAD1
:100B5000F9700029D2D10120F870CFE70C2100985C
:100B6000FFF7DEFA15488170067002785300E654EC
:100B70001B19521CD2B25F7002700C2AF5D306709A
:100B80000E4607463C780C21A019FFF7C9FA4B0026
:100B90000520011B0A4A14204143D5547970981846
:100BA0004170641CE0B238700528EBD30C21B4E727
:100BB00018210348FFF7E5FA6DE700001000002058
:100BC000D8000020F8B500F099F8144D144F002417
:100BD000A600A85B0022394600F0A6F97019C27879
:100BE0008178A85B00F092FA641CE4B2032CEFD386
:100BF0000C4A00210C48FFF7F4FE0B4800F0FCFC07
:100C0000094818211838FFF7BCFA0022114610468F
:100C100000F05EF805A001F037FCF8BDA82B000835
:100C200010270000190A0008F00000204C6564201D
:100C30006469737020696E6974204F4B2121210A09
:100C400000000000F8B51E4D002420460C2148434A
:100C5000411909892858FFF7FFFD641CE4B20C2CE8
:100C6000F3D3184E184F0024707906214200B85C67
:100C7000484313499C3140186100415AD0194078CB
:100C800048436421FFF74CFA82B20D48A10090302E
:100C9000405A0E4900F048F9641CE4B2032CE3D337
:100CA00070790C214843411909892858FFF704FE3F
:100CB00070790C21401CC0B2FFF732FA7171F8BD97
:100CC000182B000810000020D8000020102700007A
:100CD00010B5054B9C79844202D1DC798C4202D05C
:100CE0009871D9719A6010BD1000002010B50248AB
:100CF000FFF72CFC10BD0000F0000020FEB50F4EE9
:100D000000240C2025464543AF190121786800F0E6
:100D1000ABFA3889009001206946087148710022B9
:100D20008A71C8717059FFF737FC39897059FFF71C
:100D300093FD641CE4B20C2CE3D3FEBD182B000819
:100D4000F8B52D4C1E212046E278051D8668022A42
:100D50000AD0234600209B78032A07D0042A13D008
:100D6000052A11D0A0800BE0697009E02070002BEB
:100D700008D00020A070002800D021702078687072
:100D8000314635E00120F5E727781E2F02D3A07009
:100D900021700AE0032F06D80121A17003212170E0
:100DA000FF21617007E0012B05D02178C91E217059
:100DB000042A03D015E02178C91CF8E76178FF29DF
:100DC00006D1A178012903D160702878401C2870D1
:100DD00028780921FFF7A4F92970002901D1012001
:100DE0002870207868700A213046FFF799F901468B
:100DF0000248FFF7A1FBF8BD1C0000200001002005
:100E0000F8B50024124DFF27F537A600A85B002295
:100E1000394600F089F87019C2788178A85B00F033
:100E200075F9641CE4B2032CEFD30A4A00210A4886
:100E3000FFF7D7FD084800F0DFFB0848002181805C
:100E40000A46084600F03AF805A001F01DFBF8BD7F
:100E5000F02B0008410D0008000100201C000020BC
:100E60004C69676874206469737020696E697420C6
:100E70004F4B2121210A0000F8B50F4E00240D4DE3
:100E800037460C3F28780621484380196100415AB3
:100E9000687848436421FFF743F982B2A000FF213C
:100EA000385AF53100F040F8641CE4B2032CE9D361
:100EB000F8BD000020000020FC2B0008024BD87079
:100EC000181D01709A6070471C00002010B5024880
:100ED000FFF73CFB10BD0000000100207047000040
:100EE0008307FF22DB0E9A408907090E99400028EC
:100EF0000BDA0007000F0838830808489B00181811
:100F0000C36993430B43C3617047830804489B0044
:100F10001B181868904308431860704700ED00E004
:100F200000E400E070470000F7B500980E46000BA3
:100F30000121000309031546884205D10121401013
:100F400000F004FA654C44E0012149034F04884253
:100F500005D10121084600F0ADF93C4639E00321F6
:100F60000903884205D10121022000F0A3F95C4C5D
:100F70002FE001218903884205D10121801100F071
:100F800099F9584C2CE005210903884205D101212B
:100F9000080400F0DBF9544C22E0032149038842A5
:100FA00005D10121480400F0D1F9504C18E0072187
:100FB0000903884205D10121880400F0C7F94C4C8F
:100FC0000EE04648844204D0BC4202D044488442E9
:100FD00003D10021204600F087FC4648844203D01C
:100FE0000021204600F086FE7D22D200424943487F
:100FF000964207D80068FFF793F8401E87B2314643
:101000003F480DE08E4208D83E490068FFF788F857
:10101000401E87B231463C4802E000273146006856
:10102000FFF77EF8401E86B23146204600F02AFEC9
:1010300000223946204600F07BFD0F21009809026E
:1010400008400ED001218902884215D128467D2111
:101050007043C900FFF77AF80146204600F0C0FE51
:1010600027E028467D217043C900FFF76FF801464D
:10107000204600F085FE1CE00121C90288420AD109
:1010800028467D217043C900FFF760F801462046DD
:1010900000F0C6FE0DE003218902884209D12846EE
:1010A0007D217043C900FFF751F80146204600F04A
:1010B000D3FE0121204600F0CDFB0848844208D031
:1010C0000948844205D00948844202D00848844235
:1010D00003D10121204600F035FCFEBD002C01406B
:1010E0000004004000200040004001400044014056
:1010F000004801400010004040420F00380000202E
:10110000809698000024F40000688909F7B50C4621
:101110000646C5B2E800444984B04118A7000290D1
:10112000C859012100F0A0F83F49A80068314118D2
:101130006000085A00900221684601710321417144
:10114000002181710121C171384902984018029033
:10115000C0596946FFF720FA334A6900B6328B1846
:101160001A5D314B02989C33CB18C059195DFFF7BB
:10117000A3FA300B012100030903884201D12C4C52
:1011800022E001214903884201D144041CE00321EB
:101190000903884201D1274C16E0012189038842C6
:1011A00001D1254C10E005210903884201D1234CCF
:1011B0000AE003214903884201D1214C04E00721C0
:1011C0000903884200D11F4C3005050F06980128FD
:1011D0000ED0002660222946204600F0EDFC002DAE
:1011E00008D0042D0BD0082D0ED00C2D11D014E0FA
:1011F0000226EFE73146204600F0D8FB0DE03146ED
:10120000204600F00FFC08E03146204600F038FC94
:1012100003E03146204600F05FFC012229462046CB
:1012200000F0D6FA07B0F0BD442C000860000020A2
:10123000002C01400004004000200040004001401C
:10124000004401400048014010B50A46054C0146E3
:101250002046FFF769FE002201212046FFF756FFD6
:1012600010BD00000840000070B504460D480E4651
:10127000044201D1002C03D10B490C4801F09EFA25
:101280000B4D002E09D0012E04D007490748491CF8
:1012900001F094FA6869204301E06869A04368613D
:1012A00070BD0000A8FF81FE56050000A42D0008B7
:1012B0000010024070B504460D480E46044201D1AC
:1012C000002C03D10B490C4801F078FA0B4D002E8D
:1012D00009D0012E04D007490748491C01F06EFAD5
:1012E000E869204301E0E869A043E86170BD0000BF
:1012F000CCB68185AB050000A42D0008001002408B
:1013000070B504460D480E46044201D1002C03D1AD
:101310000B490C4801F052FA0B4D002E09D0012E5A
:1013200004D007490748491C01F048FA28692043BE
:1013300001E02869A043286170BD0000CCB681851A
:1013400019060000A42D00080010024070B50446E4
:101350000D480E46044201D1002C03D10B490C4824
:1013600001F02CFA0B4D002E09D0012E04D00749B4
:101370000748491C01F022FAA869204301E0A86946
:10138000A043A86170BD00001EA5B8FF7D05000048
:10139000A42D00080010024070B504460D480E460A
:1013A000044201D1002C03D10B490C4801F006FA8C
:1013B0000B4D002E09D0012E04D007490748491CC7
:1013C00001F0FCF9E868204301E0E868A043E86028
:1013D00070BD00001EA5B8FFEE050000A42D00089A
:1013E00000100240F8B5564D04466A6800210C20F2
:1013F000544E024006D05448042A05D0082A05D08D
:101400000C2A2ED0266014E0206012E06A68696819
:1014100003239202DB03170F1940BF1C00291CD0C5
:10142000E96A0907090F491CFEF77AFE784301466D
:1014300021606868454F0006000F3B5C206802464B
:10144000DA4062606B685B055B0FFB5CDA40A260B0
:101450002B6BDB0507D43E4B0BE03E48394641433E
:10146000E6E73D48D0E76B685B0401D4530800E031
:101470009308E3602B6B5F06384B03D4374F12376A
:10148000276100E023612F6BFF0601D4666100E055
:1014900060612F6BBF070ED02F6BBF07BF0F012FEF
:1014A0000BD02F6BBF07BF0F022F08D02F6BFF434E
:1014B000BF0706D006E0A26104E0A06102E0A361DC
:1014C00000E0A6612F6BBF03BF0F0FD02F6BBF03D0
:1014D000BF0F012F0CD02F6BBF03BF0F022F09D0FE
:1014E0002F6BBF03BF0F032F06D006E0E26104E0BD
:1014F000E06102E0E36100E0E6612F6B3F03BF0FB4
:101500000FD02A6B1203920F012A0CD0286B000314
:10151000800F022809D0286B0003800F032806D013
:1015200006E0226204E0206202E0236200E026621C
:10153000286B000602D408486062F8BD6162F8BDFD
:101540000010024000127A0000366E0128000020D0
:10155000809FD50000093D00006CDC020080000087
:10156000704700003CB500212148019100910368BB
:101570000122120413430360540005231B03056872
:1015800025400095019D6D1C0195009D002D02D107
:10159000019D9D42F3D103689B0326D50121009153
:1015A000144B1121196041684160416841604168F4
:1015B0007F23DB0399434160416811434160016827
:1015C000012212061143016001688901FCD54168BE
:1015D00089088900416041680222114341604168E5
:1015E0000907890F0229FAD13CBD00913CBD0000DA
:1015F00000100240002002400349096841600121B7
:1016000001730846704700000000002010B5034831
:101610000168491C0160FEF7B9FF10BD0000002001
:1016200010B5144801680122114301604168124A53
:10163000114041600168114A1140016001680122B6
:1016400092049143016041683F221204914341603A
:10165000C16A09090901C162016BFF225432914339
:101660000163416B49084900416300218160FFF734
:1016700079FF10BD001002400CB8FF08FFFFF6FE16
:1016800070B50546014610480068FEF749FD0F4950
:10169000401E884203D90EA000F0F6FE70BD124C29
:1016A000606103210E1F3046FFF71AFC0020A06185
:1016B0000720206100213046FFF712FC29460BA0CD
:1016C00000F0E2FE70BD000038000020FFFFFF00C8
:1016D0005379735469636B5F436F6E666967204526
:1016E00052524F2121210A0000E000E05379735447
:1016F00069636B5F436F6E6669672025642075536D
:10170000204F4B2E0A000000092210B5D2060128F6
:1017100004D002211046FFF79FF810BD02211046A9
:10172000FFF7CAF810BD0000F0B5012189B04804E8
:10173000FFF79AFD02200125694600900D710326EE
:101740004E7100248C710927C871FF063846FEF7D8
:1017500023FF04213846FFF77FF8042000906946F4
:101760000E714D718D71CC713846FEF715FF012158
:101770004802FFF7EBFD144E3046FEF7C3FD02A80A
:10178000FEF7D2FE694602940D730494069402A9F2
:1017900030460794FEF748FE072204213046FEF744
:1017A0005FFD3046FEF7C6FD01213046FEF78CFD99
:1017B00001213046FEF7F6FD0028F9D03046FEF74D
:1017C0009FFE09B0F0BD00000024014070470000FA
:1017D00070B50446174815460E46844216D00120BF
:1017E0008007844212D0144884420FD013488442A8
:1017F0000CD01348844209D01248844206D01248C3
:10180000844203D01149124800F0D8FF012D06D0C0
:10181000002D04D00D490E48491C00F0CFFF0120D7
:10182000218CB04081432184208CB5402843208402
:1018300070BD0000002C014000040040002000406A
:10184000004001400044014000480140730700008F
:10185000EC2D000870B5044619480D4684421DD091
:1018600001208007844219D01648844216D01648B9
:10187000844213D01548844210D0154884420DD0BC
:10188000144884420AD01448844207D01348844242
:1018900004D097218900124800F090FF002D09D054
:1018A000012D03D00F490E4800F088FF2088012148
:1018B000084302E0208840084000208070BD0000FE
:1018C000002C0140000400400010004000140040C3
:1018D0000020004000400140004401400048014019
:1018E000EC2D00085D02000070B5054612480C465C
:1018F00085420BD001208007854207D00F488542E2
:1019000004D0FF216F310E4800F058FF002C0CD09E
:10191000102C0AD0202C08D0402C06D0602C04D0EB
:10192000FF217031064800F049FF28887021884364
:101930002043288070BD0000002C014000040040BE
:10194000EC2D000870B5044612480D4684420CD0B8
:101950001148844209D01148844206D0104884427C
:1019600003D01049104800F029FF4034002D0BD05F
:10197000012D04D00B490C48491C00F01FFFA08822
:101980000121C903084302E0A0884004400CA08064
:1019900070BD0000002C01400040014000440140A7
:1019A00000480140C1020000EC2D000870B504465B
:1019B00014480D46844216D001208007844212D07C
:1019C000114884420FD0114884420CD01048844200
:1019D00009D01048844206D00F48844203D00F49F2
:1019E0000F4800F0EBFE002D06D0022D04D00B496D
:1019F0000B48491C00F0E2FE208C0221884328435A
:101A0000208470BD002C01400004004000200040F4
:101A1000004001400044014000480140A906000088
:101A2000EC2D000870B5044610480D4684420DD0D8
:101A300001208007844209D00D48844206D00D4819
:101A4000844203D00C490D4800F0B8FE002D06D0AA
:101A5000022D04D008490948491C00F0AFFE208C33
:101A60002021884329010143218470BD002C0140BD
:101A70000004004000400140DB060000EC2D00089F
:101A800070B504460F480D4684420AD001208007F5
:101A9000844206D00C48844203D00C490C4800F024
:101AA0008DFE002D06D0022D04D008490848491C9F
:101AB00000F084FE208C074908402902014321845C
:101AC00070BD0000002C0140000400400D07000024
:101AD000EC2D0008FFFD000070B504460F480D46D0
:101AE00084420BD001208007844207D00C488442F6
:101AF00004D01D2189010B4800F060FE002D05D0A7
:101B0000022D03D00849074800F058FE208C0749F1
:101B1000084029030143218470BD0000002C0140CE
:101B200000040040EC2D000841070000FFDF00002A
:101B300070B50446174815460E4684421DD0012054
:101B40008007844219D01448844216D01348844236
:101B500013D01348844210D0124884420DD012484A
:101B600084420AD01148844207D01148844204D0EC
:101B7000FF2154310F4800F021FE002D06D0012D29
:101B800004D0FF2155310B4800F018FE2685A582B0
:101B900070BD0000002C0140000400400010004017
:101BA000001400400020004000400140004401407B
:101BB00000480140EC2D000870B504462948154640
:101BC0000E46844216D001208007844212D0264857
:101BD00084420FD0254884420CD02548844209D045
:101BE0002448844206D02448844203D02349244810
:101BF00000F0E4FD002D12D0102D10D0202D0ED0BD
:101C0000302D0CD0602D0AD0702D08D0502D06D06C
:101C1000402D04D019491A48491C00F0CFFD204638
:101C200018300121228CB1408A432284002E10D02A
:101C3000082E0ED0361F3104490C081801680722FF
:101C400012039143016001682A06120C11430160DE
:101C500070BD710808180168702291430160016825
:101C60002943F4E7002C014000040040002000401C
:101C70000040014000440140004801407104000060
:101C8000EC2D000870B5044611480D4684421DD065
:101C900001208007844219D00E48844216D00E4895
:101CA000844213D00D48844210D00D4884420DD098
:101CB0000C4884420AD00C48844207D00B48844226
:101CC00004D0FF219A310A4800F078FDE56270BD2A
:101CD000002C0140000400400010004000140040AF
:101CE0000020004000400140004401400048014005
:101CF000EC2D000870B5044618480D46844216D0F5
:101D000001208007844212D0154884420FD0154824
:101D100084420CD01448844209D01448844206D02E
:101D20001348844203D01349134800F047FD002DA7
:101D30000BD0E81FF93808D0E81FFF38FA3804D074
:101D40000C490D48491C00F039FD20880B4908401A
:101D5000208020882843208070BD0000002C014096
:101D600000040040002000400040014000440140C9
:101D70000048014045020000EC2D0008FFFC000077
:101D800070B504460E480D46844216D001208007E7
:101D9000844212D00B4884420FD00B4884420CD0AE
:101DA0000A48844209D00A48844206D0094884423D
:101DB00003D00949094800F001FD656370BD0000CA
:101DC000002C014000040040002000400040014081
:101DD00000440140004801409C040000EC2D000834
:101DE00070B5044609480D4684420DD00120800795
:101DF000844209D00648844206D00648844203D073
:101E00000549064800F0DAFCA56370BD002C0140CE
:101E10000004004000400140AC040000EC2D00082C
:101E200070B5044608480D4684420AD00120800758
:101E3000844206D00548844203D00549054800F095
:101E4000BDFCE56370BD0000002C014000040040B3
:101E5000BB040000EC2D000870B5044608480D4690
:101E600084420AD001208007844206D0054884427B
:101E700003D00549054800F0A1FC256470BD0000B1
:101E8000002C014000040040CB040000EC2D0008B1
:101E9000018002490968416070470000000000208D
:101EA00070B5044617480D46844219D0164884423E
:101EB00016D01648844213D01548844210D01548D5
:101EC00084420DD0144884420AD01448844207D07A
:101ED0001348844204D0FF21AD31124800F06EFC5B
:101EE000002D0AD0012D04D0FF21AE310D4800F0A5
:101EF00065FC20680121084302E02068400840009A
:101F0000206070BD0038014000440040004800409F
:101F1000004C0040005000400014014000180140F7
:101F2000001C0140342E0008F8B504462F488442B6
:101F30001ED02F482F4D304E304F844212D0AC422D
:101F400010D0B4420ED02E4884420BD02D4884428B
:101F500008D02D48844205D0BC4240D0B2212B4845
:101F600000F02CFC224884420AD101214C040BE0F1
:101F700001218C032046FFF70FFA0021204629E0BB
:101F8000AC4209D101218C042046FFF7B9F90021A8
:101F90002046FFF7B5F9F8BDB44202D10121CC04C7
:101FA000F2E71748844202D101210C05ECE71548FD
:101FB000844206D101212020FFF7EEF900212020E4
:101FC00008E01148844208D101214020FFF7E4F9DC
:101FD00000214020FFF7E0F9F8BDBC42FCD101210F
:101FE0008020FFF7D9F900218020F3E70038014075
:101FF0000044004000480040004C0040001C0140EC
:10200000005000400014014000180140342E000828
:1020100070B50546324800260C46854218D0314836
:10202000854215D03048854212D0304885420FD0C5
:102030002F4885420CD02F48854209D02E48854232
:1020400006D02E48854203D02D492E4800F0B6FB1D
:10205000012C3ED0802C3CD0402C3AD0202C38D0C3
:10206000102C36D0E01FF93833D0E01FFF38FA3893
:102070002FD0082C2DD0042C2BD0022C29D00120BD
:102080008002844225D04000844222D04000844215
:102090001FD0800084421CD04000844219D04000F0
:1020A000844216D04000844213D04000844210D0B5
:1020B000400084420DD0400084420AD04000844257
:1020C00007D04000844204D00D490E48491C00F05E
:1020D00075FBE869204200D00126304670BD000043
:1020E000003801400044004000480040004C0040DF
:1020F000005000400014014000180140001C014045
:10210000C2070000342E0008F0B5044658488BB0D2
:102110000D46844218D05748844215D05648844210
:1021200012D0564884420FD0554884420CD05548AE
:10213000844209D05448844206D05448844203D093
:10214000F221534800F03AFB28685249401E884269
:1021500003D3F3214E4800F031FB686800280AD011
:1021600001210903884206D04B49884203D0F4215B
:10217000474800F023FB0326A8683603002809D04F
:1021800001214903884205D0B04203D0F5214048DF
:1021900000F014FBE86800280BD001218902884276
:1021A00007D003214902884203D0F621384800F0C5
:1021B00005FB28690C220146914301D1002803D177
:1021C000F721334800F0FAFA032768693F02002834
:1021D0000CD0C11FF93909D0C11FFF39FA3905D018
:1021E000B84203D0F8212A4800F0E8FA20684008F5
:1021F000400020606068A968B043014361602068C6
:102200002649EA680840696811432A690243114374
:102210002160A0686969B8430143A1606846FFF77F
:10222000E1F81348844201D106980AE0114884423B
:1022300001D1079805E01048844201D1089800E0D8
:10224000029821680904296800D54000FDF768FF5D
:102250002A6852088A4200D8401C2168090404D523
:1022600001070F4A490F10400843A0810BB0F0BD91
:10227000003801400044004000480040004C00404D
:10228000005000400014014000180140001C0140B3
:10229000342E0008808D5B0000100010F3E9FFFF72
:1022A000F0FF000070B5044614480D46844218D073
:1022B0001348844215D01348844212D012488442F5
:1022C0000FD0124884420CD01148844209D01148E2
:1022D000844206D01048844203D01049104800F0D0
:1022E0006DFA1048854204D90C490D48491C00F08C
:1022F00065FAE805C00D208570BD0000003801407A
:102300000044004000480040004C004000500040A5
:102310000014014000180140001C0140B6030000F9
:10232000342E0008FF010000F0B51B4E054689B0B1
:102330003046FFF7F9FD01214804FEF795FF012122
:102340008C032046FFF702F80927FF0601220E2121
:102350003846FEF7B1F90694022069460877012055
:10236000487700248C77C87706A93846FEF714F919
:102370000820009504900194029403946946059402
:102380003046FFF7C1FE01213046FFF789FD03A06B
:1023900000F07AF809B0F0BD003801405573617261
:1023A0007420646562756720696E6974204F4B21E3
:1023B0000A00000070B5244D04212846FDF7F2FF05
:1023C000224C012808D12846FDF7DAFF6168401841
:1023D00060602088401E20802088002831D17D2127
:1023E000C90021806068FDF79BFE00216160A0604C
:1023F000014617A000F048F82049A06800256A00AF
:102400008A5A824203D86D1CEDB2032DF7D360883F
:10241000A84206D00D481A490C30FFF739FD6580F7
:102420000FE00A480C30FEF7E3FA002809D007480D
:1024300014490C30FFF72CFD10496800891D085A1B
:1024400070BD002070BD0000002401404C00002041
:10245000576174657250756D705F576F726B53740E
:10246000617465446574656374204144435F5661DB
:102470006C75653D25643B0A00000000382C00089F
:1024800088130000C40900000FB410B503A9044B61
:10249000044A029800F024F810BC08BC04B01847A5
:1024A000F9270008D400002030B47446641E257853
:1024B000641CAB4200D21D46635D5B00E31830BC78
:1024C000184702E008C8121F08C1002AFAD1704755
:1024D0007047002001E001C1121F002AFBD17047A4
:1024E000FFB58FB00F460446002606E025280AD027
:1024F000129A11999047641C761C20780028F5D117
:10250000304613B0F0BD00250121A14A009500E03E
:102510000543641C23780846203B98401042F7D1BD
:1025200020782E2815D1042005436078641C2A28C1
:102530000AD101CF641C00900BE000990A2251439C
:1025400030394018641C0090207801463039092940
:10255000F3D920786C280ED004DC4C2813D06A28DC
:1025600012D104E074280ED07A280DD10BE001209E
:102570004005054307E00121090562780D438242C9
:1025800001D16D18641C641C2078864669284AD0E5
:1025900008DC0028B4D058286DD0632810D06428F7
:1025A00008D140E070286BD0732812D0752860D015
:1025B000782860D0129A704611999047761CE5E011
:1025C0003878694608720020487202A801900120FC
:1025D00003E0386801900020C0433F1D69070CD517
:1025E000002500E06D1C00998D420FDA8542F9DB71
:1025F0000199495D0029F5D108E0002500E06D1C36
:102600008542FCDB0199495D0029F8D1761907E084
:10261000019801990078491C0191129A11999047EB
:102620006D1EF5D2B2E00A20029000216802400F30
:10263000039102280CD001CFC117844600290DDA7E
:102640006246084652420021814194462D2008E00E
:10265000FF1DFF08FF0003CF8446EFE7280504D5E0
:102660002B206A46107401203CE0E8073AD0202075
:10267000F7E70A2000E0102000210391029007E014
:1026800010200290002104200543082003910090AF
:102690006802400F022810D001CF0021844600209C
:1026A0000D9028071FD5704670280CD0029A102074
:1026B000039B42401A430CD015E0FF1DFF08FF00AA
:1026C00003CF8446EBE740206A46107401200D904A
:1026D0000CE06046084306D030206A46107470460D
:1026E000507402200D907046582804D029A0019003
:1026F0000DA80E900DE02CA0F9E76046039B029A0E
:10270000FDF74AFD019B84469B5C0E9A521E0E9279
:10271000137060460843F0D10E9805A9081A2030BE
:102720000190680701D5009801E00120009001990F
:10273000884203DD01460198081A00E000200025C8
:10274000009006E004A8129A405D119990476D1C14
:10275000761C0D988542F5DB04E0129A3020119921
:102760009047761C0099481E00900029F5DC08E08F
:102770000E980E990078491C0E91129A1199904763
:10278000761C0199481E01900029F1DC641CB4E616
:102790000928010030313233343536373839616237
:1027A00063646566000000003031323334353637FB
:1027B0003839414243444546000000000A4601467C
:1027C00001A0FFF761FEFEE757726F6E6720706130
:1027D00072616D65746572732076616C75653A20FF
:1027E00066696C65202573206F6E206C696E6520AC
:1027F00025640D0A0000000070B5074D044681B243
:102800002846FFF74FFD80212846FFF701FC0028EE
:10281000F9D0204670BD000000380140E1204002A0
:10282000FFF782FD7D20C000FEF72AFFFF20002178
:10283000EB30FEF709FD00214D48FFF729FBFEF7BD
:10284000C1F94C4A08210120FEF742FAFEF764F86C
:10285000FEF76AFFFEF7D4FA002211461046FEF793
:102860002DFB434C444F0026241FFDF789FEFEF745
:1028700067F8B8422BD12078404D401C8007800F6C
:1028800020706670C000285C00280BD00120FEF785
:102890003BFF00213648FFF7FBFA7D22120105219C
:1028A00008460AE00020FEF72FFFFF200021EB3052
:1028B000FEF7CAFC2F4A08210120FEF709FA20780A
:1028C000C00041194A684978285CFEF7F7FA207879
:1028D0000028CAD0FFF76EFD0500C6D0014628A02B
:1028E000FFF7D2FD2448F330854220D12048FEF77F
:1028F0007FF80028B9D060782A21401CC0B2FDF7CB
:102900000FFC1E4D6170C800203529581848FFF78C
:10291000BFFA6078FF21C00040198088F531FEF7CA
:1029200093FC144A05210620FEF7D2F99DE71248D0
:10293000F230854202D17D22120105E00E48F130CD
:10294000854292D1FF22F53201210520FEF7C0F920
:102950000022267011461046FEF7B0FAFF20002133
:10296000EB30FEF771FC0020FEF7CEFE7DE70000A5
:1029700008000020DC05000010100000A829000855
:10298000576174657250756D705F576F726B5374D9
:10299000617465446574656374204D7367203D20E0
:1029A00025783B0A00000000000000000000000045
:1029B00002080000DC05000002060000DC05000043
:1029C00004010000DC050000A8610000EA0100002D
:1029D000A8610000EA010000A8610000EA0100000F
:1029E000E8030000F4010000E8030000FE0100001D
:1029F000E803000008020000E803000012020000E3
:102A0000E80300001C020000E803000026020000AA
:102A1000E803000030020000E80300003A02000072
:102A2000E803000044020000983A0000EF010000B3
:102A3000E8030000A4010000E8030000AE0100006C
:102A4000E8030000B8010000E8030000C201000034
:102A5000E8030000CC010000E8030000D6010000FC
:102A6000E8030000E0010000E8030000EA010000C4
:102A7000E8030000F4010000204E0000FE01000009
:102A8000E8030000F4010000E8030000EA01000090
:102A9000E8030000E0010000E8030000D6010000A8
:102AA000E8030000CC010000E8030000C2010000C0
:102AB000E8030000B8010000E8030000AE010000D8
:102AC000E8030000A4010000983A0000EF010000B4
:102AD000E803000044020000E80300003A0200009E
:102AE000E803000030020000E803000026020000B6
:102AF000E80300001C020000E803000012020000CE
:102B0000E803000008020000E8030000FE010000E6
:102B1000E8030000F4010000000400480000040085
:102B20008000000000040048000004004000000095
:102B300000040048000004002000000000040048D9
:102B40000000040010000000000400480000040021
:102B500008000000000000480000020000800000A3
:102B600000000048000002000020000000000048B3
:102B700000000200001000000000004800000200F9
:102B800000080000000000480000020020000000D3
:102B90000000004800000200100000000000004893
:102BA00000000200080000000430000005340000AE
:102BB00006380000000000000000E80300000000EC
:102BC000E80396000000E803F40100000000E803B9
:102BD00000000000E803E80300000000E803E80349
:102BE0000000E803E803E803E80300000000000039
:102BF0000218000001140000001000000000000096
:102C0000000064000000000064000F000000640089
:102C10003200000000006400000000006400640056
:102C200000000000640064000000640064006400B0
:102C3000640000000000000056006C02FF0F02114B
:102C4000031101110000020000000000000002005A
:102C50000000000000000200000000000000020070
:102C6000000000000000020000000400000002005C
:102C70000000040000000400000000000000040048
:102C8000000000000000020000000400000002003C
:102C90000000040000000200000004000000020028
:102CA0000000040000000200000004000001000019
:102CB00000020000000400000008000040001000B6
:102CC000800020000100000002000000100002004F
:102CD0000400004008000080400000018000000265
:102CE000080009000A000B000604070500000100A7
:102CF0000401020E030F0608070902000200020089
:102D000002000101010101000100040000010001B5
:102D1000050205022E2E5C414D53333246303330CE
:102D20005C4C69627261726965735C53544D3332F5
:102D3000463078785F5374645065726970685F4498
:102D400072697665725C7372635C73746D3332663C
:102D50003078785F6164632E630000002E2E5C4142
:102D60004D533332463033305C4C69627261726964
:102D700065735C53544D3332463078785F537464D6
:102D80005065726970685F4472697665725C7372CF
:102D9000635C73746D3332663078785F6770696F27
:102DA0002E6300002E2E5C414D53333246303330BB
:102DB0005C4C69627261726965735C53544D333265
:102DC000463078785F5374645065726970685F4408
:102DD00072697665725C7372635C73746D333266AC
:102DE0003078785F7263632E630000002E2E5C41A2
:102DF0004D533332463033305C4C696272617269D4
:102E000065735C53544D3332463078785F53746445
:102E10005065726970685F4472697665725C73723E
:102E2000635C73746D3332663078785F74696D2ECD
:102E3000630000002E2E5C414D5333324630333058
:102E40005C4C69627261726965735C53544D3332D4
:102E5000463078785F5374645065726970685F4477
:102E600072697665725C7372635C73746D3332661B
:102E70003078785F75736172742E63009C2E000841
:102E800000000020D8000000C2240008742F0008B1
:102E9000D800002038040000D22400080000000000
:102EA0000000000000000000000000000000000022
:102EB0000000000000000000000000000000000012
:102EC00000000000000000000102030401020304EE
:102ED00006070809006CDC0200000000000000008A
:102EE0000102030406070809E803FF0000000000D0
:102EF000000000000000000000000000000000488A
:102F00000000000000000048000000000000004831
:102F10000000000000000048000000000000004821
:102F20000004004800000048000400480004004875
:102F300000000000000400480000000000000048FD
:102F40000004004800000048000400480000004859
:102F50000004004800000048000400480000004849
:102F60000004004800000000000000000000000015
:042F7000000000005D
:04000005080000B53A
:00000001FF
